{
  "contractName": "defi2",
  "abi": [
    {
      "inputs": [],
      "payable": false,
      "stateMutability": "nonpayable",
      "type": "constructor"
    },
    {
      "constant": true,
      "inputs": [
        {
          "internalType": "address",
          "name": "",
          "type": "address"
        }
      ],
      "name": "bannis",
      "outputs": [
        {
          "internalType": "bool",
          "name": "",
          "type": "bool"
        }
      ],
      "payable": false,
      "stateMutability": "view",
      "type": "function"
    },
    {
      "constant": true,
      "inputs": [
        {
          "internalType": "address",
          "name": "",
          "type": "address"
        }
      ],
      "name": "demandes",
      "outputs": [
        {
          "internalType": "uint256",
          "name": "_remuneration",
          "type": "uint256"
        },
        {
          "internalType": "uint256",
          "name": "_delai",
          "type": "uint256"
        },
        {
          "internalType": "string",
          "name": "_description",
          "type": "string"
        },
        {
          "internalType": "enum defi2.Etat",
          "name": "_etat",
          "type": "uint8"
        },
        {
          "internalType": "uint256",
          "name": "_reputationMini",
          "type": "uint256"
        }
      ],
      "payable": false,
      "stateMutability": "view",
      "type": "function"
    },
    {
      "constant": true,
      "inputs": [
        {
          "internalType": "address",
          "name": "",
          "type": "address"
        }
      ],
      "name": "entreprises",
      "outputs": [
        {
          "internalType": "bool",
          "name": "",
          "type": "bool"
        }
      ],
      "payable": false,
      "stateMutability": "view",
      "type": "function"
    },
    {
      "constant": true,
      "inputs": [
        {
          "internalType": "address",
          "name": "",
          "type": "address"
        }
      ],
      "name": "illustrateurs",
      "outputs": [
        {
          "internalType": "string",
          "name": "",
          "type": "string"
        }
      ],
      "payable": false,
      "stateMutability": "view",
      "type": "function"
    },
    {
      "constant": true,
      "inputs": [
        {
          "internalType": "address",
          "name": "",
          "type": "address"
        }
      ],
      "name": "nomsEntreprises",
      "outputs": [
        {
          "internalType": "string",
          "name": "",
          "type": "string"
        }
      ],
      "payable": false,
      "stateMutability": "view",
      "type": "function"
    },
    {
      "constant": true,
      "inputs": [
        {
          "internalType": "address",
          "name": "",
          "type": "address"
        }
      ],
      "name": "reputation",
      "outputs": [
        {
          "internalType": "uint256",
          "name": "",
          "type": "uint256"
        }
      ],
      "payable": false,
      "stateMutability": "view",
      "type": "function"
    },
    {
      "constant": false,
      "inputs": [
        {
          "internalType": "string",
          "name": "nom",
          "type": "string"
        }
      ],
      "name": "inscription",
      "outputs": [],
      "payable": false,
      "stateMutability": "nonpayable",
      "type": "function"
    },
    {
      "constant": false,
      "inputs": [
        {
          "internalType": "address",
          "name": "illustrateur",
          "type": "address"
        }
      ],
      "name": "bannir",
      "outputs": [],
      "payable": false,
      "stateMutability": "nonpayable",
      "type": "function"
    },
    {
      "constant": false,
      "inputs": [
        {
          "internalType": "string",
          "name": "nomEntreprise",
          "type": "string"
        }
      ],
      "name": "inscrireEntreprise",
      "outputs": [],
      "payable": false,
      "stateMutability": "nonpayable",
      "type": "function"
    },
    {
      "constant": false,
      "inputs": [
        {
          "internalType": "uint256",
          "name": "remuneration",
          "type": "uint256"
        },
        {
          "internalType": "uint256",
          "name": "delai",
          "type": "uint256"
        },
        {
          "internalType": "string",
          "name": "description",
          "type": "string"
        },
        {
          "internalType": "uint256",
          "name": "reputationMini",
          "type": "uint256"
        }
      ],
      "name": "ajouterDemande",
      "outputs": [],
      "payable": true,
      "stateMutability": "payable",
      "type": "function"
    }
  ],
  "bytecode": "0x608060405234801561001057600080fd5b5060016000803373ffffffffffffffffffffffffffffffffffffffff1673ffffffffffffffffffffffffffffffffffffffff16815260200190815260200160002060006101000a81548160ff021916908315150217905550600a600260003373ffffffffffffffffffffffffffffffffffffffff1673ffffffffffffffffffffffffffffffffffffffff16815260200190815260200160002081905550611526806100bc6000396000f3fe6080604052600436106100915760003560e01c80639f5e7d43116100595780639f5e7d431461018b578063a874dc8c146101cc578063b21f869914610209578063b9f7945114610246578063cbfad3501461028357610091565b806326493426146100965780634476cf59146100bf57806365eb3035146100e857806389e881cf14610125578063955aff6c14610162575b600080fd5b3480156100a257600080fd5b506100bd60048036036100b89190810190610df0565b61029f565b005b3480156100cb57600080fd5b506100e660048036036100e19190810190610e19565b610531565b005b3480156100f457600080fd5b5061010f600480360361010a9190810190610df0565b610727565b60405161011c91906111a1565b60405180910390f35b34801561013157600080fd5b5061014c60048036036101479190810190610df0565b610747565b60405161015991906111bc565b60405180910390f35b34801561016e57600080fd5b5061018960048036036101849190810190610e19565b6107f7565b005b34801561019757600080fd5b506101b260048036036101ad9190810190610df0565b610939565b6040516101c3959493929190611319565b60405180910390f35b3480156101d857600080fd5b506101f360048036036101ee9190810190610df0565b610a14565b60405161020091906111bc565b60405180910390f35b34801561021557600080fd5b50610230600480360361022b9190810190610df0565b610ac4565b60405161023d91906111a1565b60405180910390f35b34801561025257600080fd5b5061026d60048036036102689190810190610df0565b610ae4565b60405161027a91906112fe565b60405180910390f35b61029d60048036036102989190810190610e5a565b610afc565b005b600115156000803373ffffffffffffffffffffffffffffffffffffffff1673ffffffffffffffffffffffffffffffffffffffff16815260200190815260200160002060009054906101000a900460ff16151514610331576040517f08c379a0000000000000000000000000000000000000000000000000000000008152600401610328906112be565b60405180910390fd5b60001515600360008373ffffffffffffffffffffffffffffffffffffffff1673ffffffffffffffffffffffffffffffffffffffff16815260200190815260200160002060009054906101000a900460ff161515146103c4576040517f08c379a00000000000000000000000000000000000000000000000000000000081526004016103bb9061127e565b60405180910390fd5b6000600260008373ffffffffffffffffffffffffffffffffffffffff1673ffffffffffffffffffffffffffffffffffffffff1681526020019081526020016000205411610446576040517f08c379a000000000000000000000000000000000000000000000000000000000815260040161043d906111fe565b60405180910390fd5b600160008273ffffffffffffffffffffffffffffffffffffffff1673ffffffffffffffffffffffffffffffffffffffff16815260200190815260200160002060006104919190610c85565b6000600260008373ffffffffffffffffffffffffffffffffffffffff1673ffffffffffffffffffffffffffffffffffffffff168152602001908152602001600020819055506001600360008373ffffffffffffffffffffffffffffffffffffffff1673ffffffffffffffffffffffffffffffffffffffff16815260200190815260200160002060006101000a81548160ff02191690831515021790555050565b60001515600360003373ffffffffffffffffffffffffffffffffffffffff1673ffffffffffffffffffffffffffffffffffffffff16815260200190815260200160002060009054906101000a900460ff161515146105c4576040517f08c379a00000000000000000000000000000000000000000000000000000000081526004016105bb906112de565b60405180910390fd5b6001600260003373ffffffffffffffffffffffffffffffffffffffff1673ffffffffffffffffffffffffffffffffffffffff1681526020019081526020016000205410610646576040517f08c379a000000000000000000000000000000000000000000000000000000000815260040161063d906111de565b60405180910390fd5b60008151141561068b576040517f08c379a00000000000000000000000000000000000000000000000000000000081526004016106829061121e565b60405180910390fd5b80600160003373ffffffffffffffffffffffffffffffffffffffff1673ffffffffffffffffffffffffffffffffffffffff16815260200190815260200160002090805190602001906106de929190610ccd565b506001600260003373ffffffffffffffffffffffffffffffffffffffff1673ffffffffffffffffffffffffffffffffffffffff1681526020019081526020016000208190555050565b60056020528060005260406000206000915054906101000a900460ff1681565b60066020528060005260406000206000915090508054600181600116156101000203166002900480601f0160208091040260200160405190810160405280929190818152602001828054600181600116156101000203166002900480156107ef5780601f106107c4576101008083540402835291602001916107ef565b820191906000526020600020905b8154815290600101906020018083116107d257829003601f168201915b505050505081565b60001515600560003373ffffffffffffffffffffffffffffffffffffffff1673ffffffffffffffffffffffffffffffffffffffff16815260200190815260200160002060009054906101000a900460ff1615151461088a576040517f08c379a00000000000000000000000000000000000000000000000000000000081526004016108819061125e565b60405180910390fd5b6001600560003373ffffffffffffffffffffffffffffffffffffffff1673ffffffffffffffffffffffffffffffffffffffff16815260200190815260200160002060006101000a81548160ff02191690831515021790555080600660003373ffffffffffffffffffffffffffffffffffffffff1673ffffffffffffffffffffffffffffffffffffffff1681526020019081526020016000209080519060200190610935929190610ccd565b5050565b6004602052806000526040600020600091509050806000015490806001015490806002018054600181600116156101000203166002900480601f0160208091040260200160405190810160405280929190818152602001828054600181600116156101000203166002900480156109f15780601f106109c6576101008083540402835291602001916109f1565b820191906000526020600020905b8154815290600101906020018083116109d457829003601f168201915b5050505050908060030160009054906101000a900460ff16908060040154905085565b60016020528060005260406000206000915090508054600181600116156101000203166002900480601f016020809104026020016040519081016040528092919081815260200182805460018160011615610100020316600290048015610abc5780601f10610a9157610100808354040283529160200191610abc565b820191906000526020600020905b815481529060010190602001808311610a9f57829003601f168201915b505050505081565b60036020528060005260406000206000915054906101000a900460ff1681565b60026020528060005260406000206000915090505481565b60011515600560003373ffffffffffffffffffffffffffffffffffffffff1673ffffffffffffffffffffffffffffffffffffffff16815260200190815260200160002060009054906101000a900460ff16151514610b8f576040517f08c379a0000000000000000000000000000000000000000000000000000000008152600401610b869061123e565b60405180910390fd5b60646002850281610b9c57fe5b048401341015610be1576040517f08c379a0000000000000000000000000000000000000000000000000000000008152600401610bd89061129e565b60405180910390fd5b6000600460003373ffffffffffffffffffffffffffffffffffffffff1673ffffffffffffffffffffffffffffffffffffffff168152602001908152602001600020905084816000018190555083816001018190555082816002019080519060200190610c4e929190610ccd565b5060008160030160006101000a81548160ff02191690836002811115610c7057fe5b02179055508181600401819055505050505050565b50805460018160011615610100020316600290046000825580601f10610cab5750610cca565b601f016020900490600052602060002090810190610cc99190610d4d565b5b50565b828054600181600116156101000203166002900490600052602060002090601f016020900481019282601f10610d0e57805160ff1916838001178555610d3c565b82800160010185558215610d3c579182015b82811115610d3b578251825591602001919060010190610d20565b5b509050610d499190610d4d565b5090565b610d6f91905b80821115610d6b576000816000905550600101610d53565b5090565b90565b600081359050610d81816114b5565b92915050565b600082601f830112610d9857600080fd5b8135610dab610da6826113a0565b611373565b91508082526020830160208301858383011115610dc757600080fd5b610dd2838284611455565b50505092915050565b600081359050610dea816114cc565b92915050565b600060208284031215610e0257600080fd5b6000610e1084828501610d72565b91505092915050565b600060208284031215610e2b57600080fd5b600082013567ffffffffffffffff811115610e4557600080fd5b610e5184828501610d87565b91505092915050565b60008060008060808587031215610e7057600080fd5b6000610e7e87828801610ddb565b9450506020610e8f87828801610ddb565b935050604085013567ffffffffffffffff811115610eac57600080fd5b610eb887828801610d87565b9250506060610ec987828801610ddb565b91505092959194509250565b610ede816113fa565b82525050565b610eed81611443565b82525050565b6000610efe826113cc565b610f0881856113d7565b9350610f18818560208601611464565b610f2181611497565b840191505092915050565b6000610f39601a836113d7565b91507f566f757320c3aa7465732064c3a96ac3a020696e7363726974730000000000006000830152602082019050919050565b6000610f796020836113d7565b91507f4c27696c6c757374726174657572206e276573742070617320696e73637269746000830152602082019050919050565b6000610fb96016836113d7565b91507f566575696c6c657a20656e7472657220756e206e6f6d000000000000000000006000830152602082019050919050565b6000610ff9601e836113d7565b91507f496e7363726976657a206c27656e747265707269736520642761626f726400006000830152602082019050919050565b6000611039601a836113d7565b91507f456e74726570726973652064c3a96ac3a020696e7363726974650000000000006000830152602082019050919050565b6000611079601f836113d7565b91507f4c27696c6c757374726174657572206573742064c3a96ac3a02062616e6e69006000830152602082019050919050565b60006110b96031836113d7565b91507f4465706f737420696e737566666973616e742c206e276f75626c69657a20706160008301527f73206c65732032252064652066726169730000000000000000000000000000006020830152604082019050919050565b600061111f601f836113d7565b91507f566f7573206e27c3aa746573207061732061646d696e697374726174657572006000830152602082019050919050565b600061115f6016836113d7565b91507f566f7573206176657a20c3a974c3a92062616e6e6973000000000000000000006000830152602082019050919050565b61119b81611439565b82525050565b60006020820190506111b66000830184610ed5565b92915050565b600060208201905081810360008301526111d68184610ef3565b905092915050565b600060208201905081810360008301526111f781610f2c565b9050919050565b6000602082019050818103600083015261121781610f6c565b9050919050565b6000602082019050818103600083015261123781610fac565b9050919050565b6000602082019050818103600083015261125781610fec565b9050919050565b600060208201905081810360008301526112778161102c565b9050919050565b600060208201905081810360008301526112978161106c565b9050919050565b600060208201905081810360008301526112b7816110ac565b9050919050565b600060208201905081810360008301526112d781611112565b9050919050565b600060208201905081810360008301526112f781611152565b9050919050565b60006020820190506113136000830184611192565b92915050565b600060a08201905061132e6000830188611192565b61133b6020830187611192565b818103604083015261134d8186610ef3565b905061135c6060830185610ee4565b6113696080830184611192565b9695505050505050565b6000604051905081810181811067ffffffffffffffff8211171561139657600080fd5b8060405250919050565b600067ffffffffffffffff8211156113b757600080fd5b601f19601f8301169050602081019050919050565b600081519050919050565b600082825260208201905092915050565b60006113f382611419565b9050919050565b60008115159050919050565b6000819050611414826114a8565b919050565b600073ffffffffffffffffffffffffffffffffffffffff82169050919050565b6000819050919050565b600061144e82611406565b9050919050565b82818337600083830152505050565b60005b83811015611482578082015181840152602081019050611467565b83811115611491576000848401525b50505050565b6000601f19601f8301169050919050565b600381106114b257fe5b50565b6114be816113e8565b81146114c957600080fd5b50565b6114d581611439565b81146114e057600080fd5b5056fea365627a7a7231582008bc48c2de2c768e06cbeff2685835d4c6a4c84132e1769b62805c152cba3a666c6578706572696d656e74616cf564736f6c634300050c0040",
  "source": "pragma solidity ^0.5.11;\npragma experimental ABIEncoderV2;\n\n//import \"https://github.com/OpenZeppelin/openzeppelin-solidity/contracts/math/SafeMath.sol\";\n\ncontract defi2 {\n    //using SafeMath for uint;\n    enum Etat {OUVERTE, ENCOURS, FERMEE}\n    mapping (address => bool) private administrateurs;\n    mapping (address => string) public illustrateurs;\n    mapping (address => uint) public reputation;\n    mapping (address => bool) public bannis;\n    mapping (address => Demande) public demandes;\n    mapping (address => bool) public entreprises;\n    mapping (address => string) public nomsEntreprises;\n    \n    constructor() public {\n        administrateurs[msg.sender] = true;\n        reputation[msg.sender] = 10;\n    }\n    \n    struct Demande {\n        uint _remuneration;\n        uint _delai;\n        string _description;\n        Etat _etat;\n        uint _reputationMini;\n        mapping (address => bool) _candidats;\n    }\n    \n    function inscription(string memory nom) public{\n        require(bannis[msg.sender] == false, \"Vous avez été bannis\");\n        require(reputation[msg.sender] < 1, \"Vous êtes déjà inscrits\");\n        require(bytes(nom).length != 0, \"Veuillez entrer un nom\");\n        illustrateurs[msg.sender] = nom;\n        reputation[msg.sender] = 1;\n    }\n    \n    function bannir(address illustrateur) public{\n        require(administrateurs[msg.sender] == true, \"Vous n'êtes pas administrateur\");\n        require(bannis[illustrateur] == false, \"L'illustrateur est déjà banni\");\n        require(reputation[illustrateur] > 0, \"L'illustrateur n'est pas inscrit\");\n        delete illustrateurs[illustrateur];\n        reputation[illustrateur] = 0;\n        bannis[illustrateur] = true;\n    }\n    \n    function inscrireEntreprise(string memory nomEntreprise) public{\n        require(entreprises[msg.sender] == false, \"Entreprise déjà inscrite\");\n        entreprises[msg.sender] = true;\n        nomsEntreprises[msg.sender] = nomEntreprise;\n    }\n    \n    function ajouterDemande(uint remuneration, uint delai, string memory description, uint reputationMini) payable public{\n        require(entreprises[msg.sender] == true, \"Inscrivez l'entreprise d'abord\");\n        require(msg.value >= (remuneration + (remuneration * 2)/100), \"Depost insuffisant, n'oubliez pas les 2% de frais\");\n        Demande storage nouvelleDemande = demandes[msg.sender];\n        nouvelleDemande._remuneration = remuneration;\n        nouvelleDemande._delai = delai;\n        nouvelleDemande._description = description;\n        nouvelleDemande._etat = Etat.OUVERTE;\n        nouvelleDemande._reputationMini = reputationMini;\n    }\n}",
  "sourcePath": "/home/bobby/exercices/defi_2/contracts/defi2.sol",
  "compiler": {
    "name": "solc",
    "version": "0.5.12+commit.7709ece9.Emscripten.clang"
  },
  "schemaVersion": "3.0.19",
  "updatedAt": "2019-11-15T14:07:33.038Z",
  "networkType": "ethereum",
  "devdoc": {
    "methods": {}
  },
  "userdoc": {
    "methods": {}
  }
}